:020000040000FA
:10000000080D00204D0100005501000057010000BF
:1000100000000000000000000000000000000000E0
:100020000000000000000000000000005901000076
:1000300000000000000000005B010000C96A000031
:1000400075480000610100006101000061010000CD
:100050006101000061010000610100006101000018
:100060006101000061010000610100006101000008
:10007000396D000061010000116C00006101000099
:1000800061010000610100005F01000061010000EA
:100090006101000061010000610100005F010000DA
:1000A0005F0100005F0100005F0100005F010000D0
:1000B0005F0100005F0100005F01000061010000BE
:1000C000EE75E0FF00F002F800F030F80CA030C848
:1000D000083824182D18A246671EAB4654465D46C4
:1000E000AC4201D100F022F87E460F3E0FCCB6465E
:1000F0000126334200D0FB1AA246AB4633431847D1
:10010000F0D9000010DA00000023002400250026AA
:10011000103A01D378C1FBD8520700D330C100D5C3
:100120000B6070471FB51FBD10B510BD00F030FF4C
:100130001146FFF7F7FF06F09DFE00F048FF03B4FD
:10014000FFF7F2FF03BC00F07DFF00000848804786
:1001500008480047FEE7FEE7FEE7FEE7FEE7FEE7AA
:10016000FEE7000004480549054A064B70470000B9
:10017000D96A0000C500000008080020080D002012
:100180000809002008090020002203098B422CD313
:10019000030A8B4211D300239C464EE003460B43D7
:1001A0003CD4002243088B4231D303098B421CD339
:1001B000030A8B4201D394463FE0C3098B4201D32B
:1001C000CB01C01A524183098B4201D38B01C01A63
:1001D000524143098B4201D34B01C01A52410309DA
:1001E0008B4201D30B01C01A5241C3088B4201D389
:1001F000CB00C01A524183088B4201D38B00C01A36
:10020000524143088B4201D34B00C01A5241411A5C
:1002100000D201465241104670475DE0CA0F00D03F
:100220004942031000D34042534000229C46030938
:100230008B422DD3030A8B4212D3FC22890112BABE
:10024000030A8B420CD3890192118B4208D3890196
:1002500092118B4204D389013AD0921100E08909AE
:10026000C3098B4201D3CB01C01A524183098B428F
:1002700001D38B01C01A524143098B4201D34B0178
:10028000C01A524103098B4201D30B01C01A5241DB
:10029000C3088B4201D3CB00C01A524183088B4262
:1002A00001D38B00C01A5241D9D243088B4201D3EB
:1002B0004B00C01A5241411A00D2014663465241D6
:1002C0005B10104601D34042002B00D549427047D5
:1002D00063465B1000D3404201B50020C046C046D3
:1002E00002BD7047704770470246C80FC007814380
:1002F0004B0030B54B405B009B0D20D01923DB0633
:10030000C91801231B05994220DB0324A4070425F7
:100310001346AB400BD3002B04D1EB0613409B00DC
:10032000E34204D401246407002312195941FF2336
:100330001B0599420BD2C9000143500F09E0CB02C3
:1003400004D501430803024305D0054830BDFF2111
:10035000C905084330BD084607210905884330BD5B
:100360000000C07FF0B50C46871A9C410D46861AE6
:100370009D4103D2C01BA141D21963410D0D1F0D38
:10038000C94EEC1BAE435CD07F057F0D0026002FCD
:1003900051D02D05AC46A943DD020123ED0A1B0512
:1003A0001D4320231B1B24D41746E74038187141F6
:1003B0002F46E740CC199D402818314661410C0D6D
:1003C00027D161449A4013D50023401C5941520063
:1003D0000ED14008400001224B005205D34207D302
:1003E00005204007C14201D5B04900E0B049304680
:1003F000F0BD6B00002A00D001229A181F23203C78
:100400001B1B01D5002302E0E540281871410C0DAB
:10041000D7D0012424050919C407CD07400849088D
:10042000E40F28436144002CD5D00024401C6141D6
:100430009A40D0D1CDE76A05520DD9D1C90FC9076D
:10044000D5E79C4D4E00002801D0012400E0002497
:1004500034195F00002A01D0012600E00026BE19F1
:10046000954FAC420CD8AE420AD8B44206D0012512
:100470006D05EC42BCD010461946F0BD9942FCD047
:1004800000203946F0BDF0B51FB40C460F46811A66
:100490009F412546861A9D4106D20125ED076F40F2
:1004A000401ABC4152187B41210D1E0D8D1BAC46DC
:1004B0007D4D8D437ED075056D0D7CD00D05AE460E
:1004C000AC431B031B0B794D52429D4120236646D2
:1004D0009B1B14D31746F740381800260090744130
:1004E00060462F460741E41900989D402818664150
:1004F00016D4714671189A4025D5012320E093182F
:100500002A466A415200002B00D0521C1E23203E76
:100510009B1B002B61DD3541EE1728186641E8D59D
:10052000001876415B1C9A4000D3401C4B05F31821
:100530001524E34010D3002B52D071467118D30F0D
:10054000C01802D3491C05B0F0BD0123DB079A4255
:10055000F9D140084000F6E701225205B21801D156
:10056000002853D00123CC0ADB029943891E002ABC
:1005700008D1020C03D0020C0004103902E002463C
:10058000002020390023550B05D112020823550BFA
:1005900001D152010D23550C01D112011B1DD50CA7
:1005A00001D192009B1C150D01D152005B1C20252E
:1005B000EE1A01E02CE022E00546F5401543984094
:1005C000CA1AE10769181305C918002ABBDA032003
:1005D00040070818C10FC9070FE071466118B2E75C
:1005E000F10740080843711071444A000CD0012300
:1005F0005B059A42A7D2C90FC9070020A3E74905A6
:10060000490D26D1002001E00028F4D100219AE70D
:10061000284D6600002801D0012100E0002171185A
:100620005F00002A01D0012600E00026BE19224FFB
:10063000A94210D8AE420ED8B14208D001256D05AE
:10064000E94206D01946A802414010467BE79C4289
:1006500001D0214677E70020394674E710B50C46F3
:100660005C4005D50124E4076340FFF70CFF10BD93
:10067000FFF778FE10BD30B40C465C4004D5012471
:10068000E407634030BC6DE630BCFCE670B5012485
:10069000E40761400D465D4002D4FFF763FE70BD84
:1006A0006340FFF7F0FE70BDFF0700000000F0FFA1
:1006B0000000F07F0000E0FF0000F87FF0B5F94D8A
:1006C0000C091E092C402E402F468BB0A7437DD02D
:1006D000B543FCD0002E7AD0002CFCD00D465D40F6
:1006E000ED0F2543AC1BFF25AD0464190894C5022A
:1006F000440DC9022143500DDC0204430120C00710
:1007000001430443D2020191200C110C00958C4648
:10071000010423468B430A9161460904E24D8A4352
:100720000991010A7D4449198039097805464D43EC
:1007300001266D18F605751B6943C90C640B891CED
:100740004C436418B5012C1B250C2E04B4434C43B8
:100750004D43210C691889090591009DE90701D0D5
:100760000121C90704912C4601996708CD072F4341
:100770004C08059DE10B4D432D0C294666467543FB
:1007800002950D4645432E46029D7D1BB4410095C2
:100790000D465D4301942C0C2F040D465543AE4687
:1007A0002D0C3D43029503947546049C2D04641B57
:1007B000049406D2029C039D641C00267541039597
:1007C000029401AC70CC009F7D1B01E03EE162E130
:1007D000B44109040095079101940599A408614367
:1007E000090C0C464443650BE7040C46664674430B
:1007F000A646640B3C43039502947446049DE404AE
:100800002C1B049406D2029C039D641C0026754197
:100810000395029401AC70CC009F7D1BB441019400
:100820000C465C430095650FE7000C465443A64612
:10083000640F3C43039502947446049DE4002C1B12
:10084000049406D2029C039D641C00267541039506
:10085000029401AC70CC009F7D1BB441AE09AF0681
:10086000049DC900AD092F43049DA406AD0604955F
:10087000079D344369180791059DE10B4D432D0CED
:1008800029466646754302950D4645432E46029D10
:100890007D1BB44100950D465D4301942C0C2F0443
:1008A0000D465543AE462D0C3D43029503947546C7
:1008B000049C2D04641B049406D2029C039D641CBA
:1008C000002675410395029401AC70CC009F7D1BFE
:1008D000B44101948C050694079C890A611800951F
:1008E0000791019C0599A4086143090C0D464543F5
:1008F000680BEF040D46644665436C0B3C43049F54
:10090000ED047D1BAC4602D20025641C6841009EAC
:10091000019D371B85410846584301950C46460FFB
:10092000C5005443600F28436546E4002C1B02D2E7
:100930000025401C6E41019D3F1AB5412846BD0966
:10094000800628438446A009BF064E020699A406E5
:1009500076180743079D002068410A9907901943BC
:100960000020099B00906046FF1913434041E20FAD
:1009700064003A43A4460446D71A8C41A04203D9E6
:100980000120009020463A46C70F94184041624625
:10099000D20F2243644664000494009CBE46640067
:1009A000D71AA446044602978C417746002F01D1FE
:1009B000A04204D96046401C8446029A2046C40FD7
:1009C000A64694184041049A0546D20F2243644635
:1009D0006400D31A8D417146002901D1A84202D981
:1009E00028461A46641C10430122002800D01643F2
:1009F00061020020079B891904465C410223002CF8
:100A000002DB491813466441089DCE0A2D145D1976
:100A10004B056705E10A2C050D1908993E43C907E6
:100A20006940002B08D0934006D30022761C514128
:100A3000002B01D1760876001C4A002D43DB1542BD
:100A400041D0AA433FD030460BB0F0BD06180D464A
:100A50004D41174C7642AC411AD395181C465C4167
:100A6000134A6D42A24113D3012252054C00D442D5
:100A70000AD15C00D4420BD04B4002D59202114304
:100A8000E2E749004908DFE75940C90FC90718E004
:100A900000200849D8E7054801420DD10342F7D0AC
:100AA000F2E700000000FF0748D300000000F07FDD
:100AB0000000E0FF0000F87F114859400143C012D8
:100AC00041400020C0E70123089A9B069A4205DCBA
:100AD000032252078918C90FC907B5E70522520733
:100AE0008918074A1143D2125140ADE770B5154637
:100AF0001C4602460B4628462146FFF7DFFD70BD27
:100B0000FFFFFF7F30B50346CA02400D1043164D6C
:100B1000164C0A1502D02043002A06DBAA1A002A26
:100B200012DDD040FF2A0BDC30BD5205520D01D141
:100B300040004008AA1A07D4D0404042FF2A01DDF5
:100B4000002030BD0028FCDD4A00002B01D0012030
:100B500000E00020101801225205D042F0D8C8173A
:100B6000C043604030BD00001E0400000000008053
:100B70001F22030C02D10F22000402D0030E03D067
:100B800004E00020014670470002083A030F01D13B
:100B90000001121F830F01D18000921E002801DB8B
:100BA0004000521E120551184205C012411810464D
:100BB0007047C10FC90700D040420122920711437C
:100BC000D6E701218907D3E7F0B58B4C0F092546FD
:100BD00089B0BD437BD01D092646AE43FAD00E46F0
:100BE0005E402740F60F3E43254071D0240121424C
:100BF000FBD0FF24AD19A4042D1B039501252D0561
:100C0000DB02DB0AC9022B43C90A29431E01090181
:100C1000040F130F050121431701880B8203914331
:100C20002D098C46A90B1E438A039543B30B9A03E7
:100C300096433F09BA0B9403A74302962E467E4380
:100C40000497B6464E19D7190C460196544305979A
:100C50007E43371B7646BF1B3601B646BE0B3619A0
:100C600000967646BC043719009C01D3641C00949E
:100C70006400002F01D001263443029E049F754377
:100C800066467E430496760034196E00341900944B
:100C9000029C019E1C196643751BAE460694654670
:100CA0004519059C05956C43594375460891691A89
:100CB0000191049E01465143A41B0491611A009CBA
:100CC0000791E10605D061090122114302E072E0BB
:100CD0006EE06109089D00272C0A2D066918049D05
:100CE0007C412A0A2D066918019D6241AC0DAD02B6
:100CF0006D185441079A910D920255196141029A5B
:100D0000644658435443069B059A5A43121A131BD0
:100D10009A0E9B015B187A41010B0005C3185141E3
:100D2000220A200644195A419A4200D2491C012045
:100D30004002814203D315230226F64302E0142326
:100D40000326F6432020C51AA9401746AF40DA40D3
:100D50000A4320460399D8400914731819055118FD
:100D6000039A3843D2075140AC4009D00122944045
:100D700006D30022401C5141002C01D14008400004
:100D80001E4A934212D3012203989206904207DB37
:100D90000520400709181A480143C012414004E0E9
:100DA000032040070818C10FC907002009B0F0BD93
:100DB0000020F107FAE705180C464C4111486D4236
:100DC000A04115D394181A465A410E4864429041E6
:100DD0000ED301204A004005824209D35A008242C4
:100DE00006D35940C90F084AC90700201143DDE75F
:100DF00000200649DAE700000000FF07FE070000B8
:100E0000FFFFFF7F0000E0FF0000F07F0000F87FA1
:100E100010B501469E240002CA15A307002A02D07D
:100E20001843002A04DBA21A002A0CDDD04010BDB2
:100E30001206120E01D140004008A21A03D4D0407D
:100E400040420028F3DDFF2248001206904201D9FB
:100E5000002010BDC817C043584010BD0102C21584
:100E600004D00123DB071943002A0ADB9E239A1AC8
:100E700002D40846D0407047FF224100120691423A
:100E800001D900207047C017C04370471F22030CD0
:100E900002D10F2200041CD0030E01D10002083A37
:100EA000030F01D10001121F830F01D18000921E98
:100EB000002801DB4000521ED205511802125118C1
:100EC0001922904004D3491C002801D14908490047
:100ED00008467047C10FC90700D04042012292075F
:100EE0001143D3E701218907D0E7000010B5FF23A4
:100EF0001B0644009C421DD84C009C421AD8034655
:100F0000124A0B4307D4401A02D3EFF3008010BDFE
:100F1000EFF3008010BD081A06D2EFF30080012124
:100F20009043C907084302E0EFF30080904380F349
:100F3000008810BD0D231B041A4204D01146002066
:100F400000F006F810BD00F01BF810BD0000009086
:100F5000C80212D54803400F002804D0C803C0437C
:100F6000012188407047EFF3008000010009032150
:100F70000907084380F3008870470020704700008D
:100F800010B5024800F02BF810BD00000000C07F33
:100F9000754600F053F8AE46050069465346C00852
:100FA000C000854618B020B5FFF7DCF860BC00270C
:100FB0004908B6460026C0C5C0C5C0C5C0C5C0C525
:100FC000C0C5C0C5C0C5403D49008D46704710B57D
:100FD0000446C046C0462046FFF7B1F810BD10B524
:100FE0000C461107090F092904D00A290AD008293B
:100FF0000CD104E011460820FFF7AAFF06E05106D5
:1010000006D501E0510601D50120C007214610BDDB
:10101000D10607D501010909CC084907000E0006D1
:10102000044309E0410F20024907000A0143200E52
:1010300000061D22D14101430846E7E700487047FA
:10104000A407002001491820ABBEFEE726000200DD
:10105000704770B58C180578401C6B075B0F01D189
:101060000378401C2A1106D10278401C03E0067860
:10107000401C0E70491C5B1EF9D12B0705D40023C0
:10108000521E0DD40B70491CFAE70378401CCB1A92
:10109000921C03E01D780D70491C5B1C521EF9D593
:1010A000A142D8D3002070BD55200C49C8620B2046
:1010B000086008460068012189050843074908605F
:1010C000074808610920000388600846006810216D
:1010D0000843024908605520C862704700800640F6
:1010E0000001030010B503F02BF910BD5520054990
:1010F000C8620846406880210843024948600020D1
:10110000C86270470080064055201249486100209F
:10111000104940390860FD204002486008460068D8
:10112000082108430B4940390860002088600120ED
:1011300008490861074840380068402108430549CC
:1011400040390860002003494861022002490873C1
:1011500070470000404306400008044000B5C0222C
:101160009178F8221140164A1278114315480A4620
:10117000E03A130005F03EFE1516181A1C1E202238
:101180002222222222222222220C0E1012142200BB
:101190000D4813E00D4811E00D480FE00D480DE03B
:1011A0000D480BE00D4809E00D4807E00D4805E04B
:1011B0000D4803E00D4801E00D4800BF00BF00BD31
:1011C000201C024040420F0000A24A0400512502A8
:1011D00080A812014054890020AA44000090D00346
:1011E0000048E8010024F40000127A0000093D00E4
:1011F00080841E0070B502460B460D48002113E0A6
:10120000555C684000240BE0C507ED0F002D04D0AD
:101210004510084E7540284600E04010651CECB2B1
:10122000082CF1DB4D1CE9B29942E9DB70BD0000EE
:10123000FFFF000001A0000070B53D4880883C49D8
:1012400048800846008A012816D10846C0880988C7
:10125000401A04B237491A20085EA04203DA04207B
:1012600004F02AFF07E033491C20085EA04202DD9B
:10127000052004F021FF00BF2D4800F05FF92C4845
:10128000C0882D4988802A480088C880084600F018
:10129000F7F82A48808F02280DD12648008B28496C
:1012A000888025488089C880084600F0E9F82448ED
:1012B0000C25455F00E0234D2048C08D02281ED13B
:1012C000642068434000040C1C493620085E0A2153
:1012D0004843A04204DA1948C08E484384B20AE069
:1012E00016493820085E0A214843A04203DD13480E
:1012F000008F484384B2204605F04EF816E00C49B2
:101300001420085E68434000000C0A49C881084860
:10131000808AC989401A074908820848C08D012877
:1013200001D1888102E002200249888170BD00005D
:10133000A20600206C06002024060020D003002016
:1013400048060020FF7F000070B53D4880883C497A
:1013500048800846008A012816D10846C0880988B6
:10136000401A04B237491A20085EA04203DA04206A
:1013700004F0A2FE07E033491C20085EA04202DD13
:10138000052004F099FE00BF2D4800F0D7F82C4846
:1013900000882D4988802A48C088C880084600F007
:1013A0006FF82A48808F02280DD127488089284964
:1013B00088802448008BC880084600F061F82448E3
:1013C0000C25455F00E0234D2048008C02281ED1EB
:1013D000642068434000040C1C492820085E0A2150
:1013E0004843A04204DA1948008D484384B20AE019
:1013F00016492A20085E0A214843A04203DD13480B
:10140000408D484384B2204604F0C6FF16E00C49E4
:101410001420085E68434000000C0A49088108480F
:10142000808A0989401A074948810848008C0128A8
:1014300001D1C88002E002200249C88070BD0000CE
:101440008C0600206C06002000060020D00300203F
:1014500048060020FF7F0000F0B505460E46002438
:10146000002706E0281902F021FCC019C7B2A01C11
:10147000C4B2B442F6DBFF200130C01BC0B2F0BDE5
:101480008188C288891A09B20181C189002905D1E0
:1014900041890289891809B2418118E0C18901296D
:1014A00009D10821415E002905DA4189028989189C
:1014B00009B241810BE0C189022908D10821415EAE
:1014C000002904DD41890289891809B24181018816
:1014D0000822825E5143C913016141880A22825E5B
:1014E0005143C91341614269016989188161C26927
:1014F0008169914205DD0121C181818B09B2818120
:101500000EE0026A8169914205DA0221C181018CF3
:1015100009B2818104E00021C181018B09B281817E
:10152000704770B504460D461646611BA21B0A2380
:101530005A431046FEF732FEC0B270BD428803889F
:10154000D21A11B2002902D10122028222E000291E
:1015500010DD0822825E8A4207DA02880389D218E7
:1015600012B202800022028214E04288028001222C
:1015700002820FE00A22825E8A4207DD02884389E6
:10158000D21812B202800022028203E04288028056
:101590000122028270470000F8B5634800790928EB
:1015A00052DD6148807900284DD004F0C1FA5E49CF
:1015B000086F5E4905F0FEFD0DD25B48016F5B4888
:1015C00005F022FE0546FFF749FC84B2204600F0F4
:1015D000B3F840420BE05448016F544805F014FE44
:1015E0000546FFF73BFC84B2204600F02DF901B21E
:1015F0004D484030C18440384079022823D14A49BF
:10160000486F4A4905F0D6FD0DD24748416F47481B
:1016100005F0FAFD0546FFF721FC84B2204600F0F4
:101620008BF840420BE04048416F404805F0ECFD2C
:101630000546FFF713FC84B2204600F005F901B21D
:101640003948403001856DE03748C079002869D0BD
:1016500005F0ACFA3448C06C002814DA3448416A0A
:10166000344805F0D1FD07462F49C96C494288B27C
:1016700000F062F846423046FFF72CFC054639463A
:1016800005F052FD11E02A48416A2A4805F0BCFDE8
:1016900006462549C96C88B200F0D6F80746FFF720
:1016A00021FC0546314605F03FFD0446FFF7B0FB3F
:1016B00001B21D484030418440384079022831D180
:1016C0001948006D002814DA1948416A194805F0D4
:1016D0009BFD07461449096D494288B200F02CF879
:1016E00046423046FFF7F6FB0546394605F01CFD3D
:1016F00011E00F48416A0F4805F086FD06460A4989
:10170000096D88B200F0A0F80746FFF7EBFB05462D
:10171000314605F009FD0446FFF77AFB01B20248A5
:1017200040308184F8BD0000B80600200000C842A7
:101730003007002000002041FEB5054600260020AD
:1017400002903E48007940003D49085A401E80B250
:1017500001903A480079082801D13A48FEBD029824
:1017600004F050F90746019804F04CF9874200D97B
:101770000126002E06D1019804F044F9A84208D2AF
:101780003048EBE7019804F03DF9A84201D92D4813
:10179000E4E727E0019A02998818C10F0918C903E4
:1017A0000C0C204604F02EF9A84200D11EE0002EB9
:1017B0000CD1204604F026F9A84203D9601E80B25D
:1017C00001900FE0601C80B202900BE0204604F014
:1017D00019F9A84203D2601E80B2019002E0601C99
:1017E00080B20290019902988842D3DD00BF002E9A
:1017F00007D1204604F006F9A84209D9601E84B238
:1018000006E0204604F0FEF8A84201D2601E84B231
:10181000611C88B204F0F6F887B2204604F0F2F8B2
:1018200080B22A4639460090FFF77BFE0349C87014
:101830000A206043C978401880B28FE7B8060020BC
:10184000E80200200F270000FEB505460026002014
:1018500002903F48007940003E49085A401E80B23D
:101860000190029804F016F90746019804F012F965
:10187000874200D90126002E06D1019804F00AF90A
:10188000A84208D23448FEBD019804F003F9A842EA
:1018900001D93148F7E727E0019A02998818C10F6A
:1018A0000918C9030C0C204604F0F4F8A84200D132
:1018B0001EE0002E0CD1204604F0ECF8A84203D91B
:1018C000601E80B201900FE0601C80B202900BE0BD
:1018D000204604F0DFF8A84203D2601E80B20190D7
:1018E00002E0601C80B20290019902988842D3DD28
:1018F00000BF002E07D1204604F0CCF8A84209D939
:10190000601E84B206E0204604F0C4F8A84201D26A
:10191000601E84B2611C88B204F0BCF887B2204615
:1019200004F0B8F880B22A4639460090FFF7F9FD76
:101930000749C87008460079082802D1204632308D
:1019400084B20A2060430249C978401880B29AE7FD
:10195000B8060020D00200200F27000010B5044672
:101960000020234948702348844206D100202249A0
:10197000087148718871C87138E02048844209D1E3
:1019800077201D4908711C204871D420887180205F
:10199000C8712BE00A2C17DB194800791649087129
:1019A0001748C07948710A212046FEF7F7FB154910
:1019B000085C114988710A212046FEF7EFFB1148A7
:1019C000405C0D49C87111E00D4800790A49087161
:1019D0000B48C07948710A48407A88710A2120462C
:1019E000FEF7DCFB0748405C0349C87110BD0000EE
:1019F00098020020FFEF00001A030020FF7F000084
:101A0000B2730000A873000000210E4A5170002834
:101A10000BDD0D4A11710D49097951710B49897915
:101A200091710A49C978D1710BE00021064A117100
:101A30000649097951710549C97991710349C979F3
:101A4000D1717047980200201A030020B273000081
:101A500010B50446002023494870102C02DA601C9F
:101A600084B226E0172C02DA201D84B221E01E2C5D
:101A700002DAE01D84B21CE0202C03DA20460A3092
:101A800084B216E0222C03DA2046123084B210E031
:101A9000272C03DA20461A3084B20AE02A2C03DA13
:101AA00020461F3084B204E0362C02DA204626306D
:101AB00084B20D4840790D4908710B48007A48718D
:101AC0000A212046FEF76AFB0949085C074988712C
:101AD0000A212046FEF762FB0548405C0349C871B5
:101AE00010BD000098020020B27300001A0300200D
:101AF000A873000070B504460020174908700A2139
:101B00002046FEF74BFB1548405C1549C870642120
:101B10002046FEF743FB0D460A212846FEF73EFB12
:101B20000E49085C0E4988707D21C9002046FEF7E9
:101B300035FB0D4664212846FEF730FB0749085C5B
:101B4000074948707D21C9002046FEF727FB03495D
:101B5000085C0349087070BD98020020A87300005B
:101B60001A03002070B504460020174948700A2166
:101B70002046FEF713FB1548405C1549C8716421E7
:101B80002046FEF70BFB0D460A212846FEF706FB12
:101B90000E49085C0E4988717D21C9002046FEF778
:101BA000FDFA0D4664212846FEF7F8FA0749085C5D
:101BB000074948717D21C9002046FEF7EFFA034925
:101BC000085C0349087170BD98020020A8730000EA
:101BD0001A03002000200449087004490870487066
:101BE0008870C87070470000980200201A03002017
:101BF0000020044948700449087148718871C8710F
:101C000070470000980200201A03002070B50446B7
:101C100000201B4948700A212046FEF7BFFA1948E8
:101C2000405C1949C8710A2C0DDB64212046FEF77F
:101C3000B5FA0D460A212846FEF7B0FA1149085CAC
:101C40001149887102E000200F498871642C0EDB75
:101C50007D21C9002046FEF7A1FA0D4664212846E1
:101C6000FEF79CFA0749085C0749487102E000202A
:101C700005494871054880780349087170BD000026
:101C800098020020A87300001A030020B27300001D
:101C900070B504460D46002C0DDA012664427D2005
:101CA000C000844212DB0A212046FEF777FA044680
:101CB000681E85B20AE000260E48844206DB0A212F
:101CC0002046FEF76BFA0446681E85B2204600F0F7
:101CD00057F809490D70012D05D10A2C03DA074880
:101CE000007807498870002E03DD0648007A044911
:101CF000087070BD1027000098020020A873000033
:101D00001A030020B273000070B504460D46002C83
:101D10000DDA012664427D20C000844212DB0A21D4
:101D20002046FEF73BFA0446681E85B20AE000260C
:101D30000E48844206DB0A212046FEF72FFA0446AD
:101D4000681E85B2204600F067F809494D70012DE4
:101D500005D10A2C03DA0748007807498871002E5C
:101D600003DD0648007A0449087170BD10270000A1
:101D700098020020A87300001A030020B27300002C
:101D800070B504460020214908700A212046FEF75C
:101D900005FA1F48405C1F49C8700A2C0DDB6421FE
:101DA0002046FEF7FBF90D460A212846FEF7F6F914
:101DB0001749085C1749887002E0002015498870AF
:101DC000642C0EDB7D21C9002046FEF7E7F90D46A5
:101DD00064212846FEF7E2F90D49085C0D49487078
:101DE00002E000200B4948707D20C000844208DBDF
:101DF00001462046FEF7D2F90549085C05490870FE
:101E000002E000200349087070BD00009802002025
:101E1000A87300001A03002070B504460020214971
:101E200048700A212046FEF7B9F91F48405C1F4957
:101E3000C8710A2C0DDB64212046FEF7AFF90D4670
:101E40000A212846FEF7AAF91749085C1749887144
:101E500002E0002015498871642C0EDB7D21C90049
:101E60002046FEF79BF90D4664212846FEF796F9B9
:101E70000D49085C0D49487102E000200B4948718A
:101E80007D20C000844208DB01462046FEF786F92B
:101E90000549085C0549087102E000200349087102
:101EA00070BD000098020020A87300001A030020F3
:101EB00010B50848808A00280BDD0648808A401E3D
:101EC00081B204488182808A002802D1062004F071
:101ED000F3F810BD9005002032480078002805DD99
:101EE00031488078012108432F4988702D48407877
:101EF000002805DD2C488079012108432A49887192
:101F00002848C078002806DD2748007801210843CA
:101F10002549087005E024480078FE210840224940
:101F2000087020480079002805DD1F48007901214C
:101F300008431D4908711B488078002818DD1A489D
:101F40004078FE2108401849487008464079FE2133
:101F50000840154948710846C078012108431249D4
:101F6000C8700846C079012108430F49C87117E0BD
:101F70000D48C078FE2108400B49C8700846C0795A
:101F8000FE2108400849C8710846407801210843ED
:101F900005494870084640790121084302494871C3
:101FA00070470000980200201A03002000B50020AE
:101FB000FE49487008460078030004F01BFF08053E
:101FC000407BB0F0EDECEBEA0820F949C870F94825
:101FD0000078002803D1F849087804F019FF802020
:101FE000F34920390875F348007806280CD1F248E7
:101FF0000078C007C00F002803D0012004F008FFBC
:1020000002E0002004F004FFEA480078401CE9499F
:102010000870084600780D2810DBE5488038C07845
:1020200004210840002802DD0120E049487000201A
:10203000E04908700120DD49087078E100BD80208A
:10204000DB490871DB480078002803D1DA49487879
:1020500004F0DEFE4020D64920390875D5480078C6
:1020600006280CD1D4484078C007C00F002803D000
:10207000012004F0CDFE02E0002004F0C9FECD48AE
:102080000078401CCB490870084600780D2810DB0A
:10209000C7488038C07804210840002802DD0420A9
:1020A000C24948700020C34908700220BF49087027
:1020B0003DE1C3E74020BE490871BE4800780028D2
:1020C00003D1BD49887804F0A3FE0820B84920391F
:1020D0000875B8480078022806D1B7498978FE22E9
:1020E0001140084604F094FEB2480078401CB14903
:1020F000087008460078062810DBAD488038C078A4
:1021000004210840002802DD0220A8494870002070
:10211000A84908700320A549087008E18EE7082047
:10212000A3490871A3480078002803D1A249C878C0
:1021300004F06EFE04209E49203908759D48007801
:1021400006280CD19C48C078C007C00F002803D0D7
:10215000012004F05DFE02E0002004F059FE9548E5
:102160000078401C93490870084600780D2815DB5C
:102170008F488038C07804210840002802DD032001
:102180008A49487000208B490870042087490870EC
:10219000CDE0AFE07FE060E030E000E04EE704201B
:1021A0008349087183480078002803D1824908795F
:1021B00004F02EFE02207E49203908757D48007803
:1021C00001280CD17C480079C007C00F002803D03B
:1021D000012004F01DFE02E0002004F019FE754805
:1021E0000078401C7349087008460078042804DB16
:1021F0000020087005206D4908701FE702206C4917
:1022000008716C480078002803D16B49487904F0C4
:10221000FFFD0120664920390875664800780128CD
:102220000CD165484079C007C00F002803D00120B9
:1022300004F0EEFD02E0002004F0EAFD5D480078C5
:10224000401C5C49087008460078022804DB002026
:102250000870062055490870F0E6012054490871BD
:1022600054480078002803D15349887904F0D0FD00
:1022700080204F492039C8744E480078401C4D4991
:10228000087008460078012804DB00200870072049
:1022900046490870D2E680204549C8704548007814
:1022A000002803D14449C87904F0B2FD40204049D8
:1022B0002039C8743F48007801280CD13E48C079C5
:1022C000C007C00F002803D0012004F0A1FD02E0E8
:1022D000002004F09DFD37480078401C3549087007
:1022E00008460078022804DB0020087008202F49E7
:1022F0000870A3E640202E49C8702E4800780028B8
:1023000003D12D49087A04F083FD0820284920399B
:10231000C87428480078401C264908700846007890
:10232000042803DB002008702049087086E600BFFF
:102330001E484078002822DD00201C49887108468C
:1023400080784978884214D118480089401C174980
:10235000088108460089022811DD08460079002816
:102360000DD108464078C8702820087101204871B6
:1023700005E00E4840780D498870002008810B4820
:1023800080790F280BDA09488079401C0749887149
:10239000084680790E2802D1002088700881034801
:1023A000007900280DDD0148007907E010030020C6
:1023B000800004400C0000201A030020401E024947
:1023C000087100BF3AE600001003002010B5554820
:1023D0000078002814DD5448808B012811D1514821
:1023E0004088401C4F494880084640884E49222278
:1023F0008A5E904204DB00204A494880FEF7A4FF31
:102400008EE04948808B022811D146488088401CC4
:102410004449888008468088434930228A5E904239
:102420007EDB00203F498880FEF706FF78E03E48CB
:10243000808B032874D13D4880883C49C988401A64
:1024400004B238491E20085EA0420DDA08464078E2
:1024500000281DD1012048703348408C4880334803
:10246000C0883249088013E02E481E21415E484250
:10247000A0420DDD2B484078002809D102202949CF
:1024800048702948008E88802948C08828490880DB
:102490002448407801281FD122484088401C214907
:1024A000488008464088204922228A5E904236DBD6
:1024B00000201C494880FEF747FF1C48008A01287D
:1024C0002DD11A490620085E04228A5E904226DB3E
:1024D00000201449487022E01248407802281ED19A
:1024E00010488088401C0F498880084680880E4923
:1024F00030228A5E904212DB00200A498880FEF773
:102500009BFE0B48008A012809D108490620085E75
:1025100004228A5E904202DC00200249487000BF1B
:1025200010BD00006C060020D00300208C060020A7
:10253000A206002010B5002121484173793801F02E
:10254000B5FB1F4948720846773801F0D1FB1C499A
:1025500048830846407A032804D0062813D0102860
:1025600027D119E01648733801F0C2FBC1B21448F4
:10257000C172C07A002805DD1148007A002801DD0B
:1025800000F0BAF919E00E48733801F0B1FB0C49BC
:10259000888300F00FFF10E00948733801F0A8FBB2
:1025A000C1B20748C172C07A002801DD01F022F9EA
:1025B00003E001210248417300BF00BF10BD0000CD
:1025C0009005002010B5224841787C3041727C385B
:1025D000847820021E49C97808431D497C3148830C
:1025E00000211B487C304173407A032804D0062820
:1025F00011D0102825D11AE0154841797C30C172DC
:10260000C07A002806DD12487C30007A002801DDFF
:1026100000F088FB1AE00E48047920020C49497941
:1026200008430B497C31888300F0A2FF0EE0084884
:1026300041797C30C172C07A002801DD01F086F951
:1026400004E0012102487C30417300BF00BF10BD8F
:102650001405002010B5A348C07800281EDDA1484D
:102660008178C078814218DB002405E0601C84B2C8
:102670009D48844200DD05E09C48006A40210840F6
:102680000028F3D000BF002196488170C17000205F
:1026900003F07CFC04209649887021E19148803841
:1026A000007890498039497888427DD08D488038BB
:1026B0004178801C445C801E4078782807DA89487D
:1026C00080384078401C87498039487003E00020FA
:1026D0008449803948708748408901287ED10A2C76
:1026E00015D00D2C09D03A2C22D101217D48803003
:1026F0000171C1718038047136E07A488030007908
:10270000012803D102217748803001712CE07548FF
:102710008030007902280AD172488030C0790828B8
:1027200005DD00216F4880300171012181711BE0BE
:102730006C4880300079002815DD6A488030C07907
:10274000642804DD002167488030C171017165484B
:102750008030C1797C3844547C30C079401CC1B28F
:1027600060488030C17100BF00BF5E488030807912
:10277000002861DD5B488030C07904285CDD0021E1
:10278000584880308171002003F000FC5548401DFE
:1027900001F08CFA53498031087256480421415E99
:1027A00050488030007A00E047E0814204D04D4834
:1027B0008030007A00283FD14A488030C079C01E5E
:1027C000C1B24848401DFEF747FE044645498031E6
:1027D000C979891E434A121D881800E012E001F0F1
:1027E00065FA404980318872424880890A2148430D
:1027F00081B23C4880308182807AA0421CD1FFF7B0
:1028000099FE19E037488030C079642803DD002143
:1028100034488030C17133488030C1797C384454A9
:102820007C30C079401CC1B22E488030C17100217B
:102830004182012003F0AAFB52E02E484089022881
:102840004ED128488030418AC089814248DD2548E0
:102850008030C07904283FDD002003F097FB214839
:1028600001798030017223480421415E1D48803087
:10287000007A814204D01B488030007A00282BD196
:1028800018488030C079801EC1B21648001DFEF77E
:10289000B1FC144980310883002112488030417313
:1028A000C079401E0F49091D0C5C20027C31C9799A
:1028B000891E0C4A121D515C084304460D4880894C
:1028C0000A21484381B210467C308182008BA042AD
:1028D00001D1FFF777FE00BF002102488030C171AF
:1028E00010BD000010050020409C00000041064083
:1028F00080000440100400200EB5FE48408B0121EA
:10290000090388427ADAFB49488B01F037FAF94922
:10291000C8820846C18AC07A0818362870DCF54893
:10292000C07A4006010EF34801730146097B081185
:1029300001F0C9F9EF497C3948717C31097B0807FE
:10294000000F01F0C0F9EB497C3988710721E94893
:10295000017300BFE748C08A4000E749085AE749C9
:10296000088009880904080F01F0ADF9E1490A7BE4
:102970007C398854DF48007B401CC1B2DD480173BC
:10298000DE4909880905080F01F09DF9D9490A7B3C
:102990007C398854D748007B401CC1B2D5480173AC
:1029A000D64909780906080F01F08DF9D1490A7B4B
:1029B0007C398854CF48007B401CC1B2CD4801739C
:1029C000CE4909780807000F01F07DF9C9490A7B53
:1029D0007C398854C748007B401CC1B2C54801738C
:1029E000C08A401C81B2C348C182C07A401EC1B2B5
:1029F000C048C172C07A0028ACDC0CE104E0FFE7FB
:102A00000221BC48417306E1BA48408B01214903C9
:102A100088427DDBB748408B091D884278DC01F095
:102A20008BF9002803DD08206946088003E001F0E7
:102A30000BFA69460880B248808A81B268464180B4
:102A400000218180C1800181AA48408B0121490376
:102A5000401A81B2A748C182C07A4006010EA5483B
:102A600001730146097B081101F02DF9A1497C3958
:102A700048717C31097B0807000F01F024F99D495A
:102A80007C39887107219B48017300BF9948C08A2F
:102A900040006946085A9949088009880904080FC6
:102AA00001F011F993490A7B7C3988549148007BE5
:102AB000401CC1B28F480173904909880905080F6D
:102AC00001F001F98B490A7B7C3988548948007BE5
:102AD000401CC1B287480173884909780906080F6C
:102AE00001F0F1F883490A7B7C3988548148007BE6
:102AF000401CC1B27F480173804909780807000F64
:102B000001F0E1F87B490A7B7C398854794800E080
:102B100012E0007B401CC1B276480173C08A401CA1
:102B200081B27448C182C07A401EC1B27148C1727C
:102B3000C07A0028AADC6EE06E48408B03210903AE
:102B4000884265D16B48C07A01285DD16948C07A56
:102B50004006010E674801730146097B081101F028
:102B6000B2F864497C3948717C31097B0807000F51
:102B700001F0A9F85F497C39887107215D4801732C
:102B800001F0DAF85D49088009880904080F01F0AE
:102B90009AF858490A7B7C3988545648007B401C77
:102BA000C1B254480173554909880905080F01F05D
:102BB0008AF850490A7B7C3988544E48007B401C77
:102BC000C1B24C4801734D4909780906080F01F05C
:102BD0007AF848490A7B7C3988544648007B401C77
:102BE000C1B244480173454909780807000F01F054
:102BF0006AF840490A7B7C3988543E48007B401C77
:102C0000C1B23C48017306E002213A48417302E038
:102C10000221384841733748407B002836DD38218F
:102C200034487C38C1703349497B081101F04BF8B6
:102C300030497C3948717C31497B0807000F01F02D
:102C400042F82C497C39887106212A487B38FEF7E6
:102C500003FC2849C882C98A0905080E01F033F827
:102C600024497C39C8717C31897D0807000F01F047
:102C70002AF820497C3908720D211E487C3841729F
:102C80000A2181720B2000F021FB48E01948007BEB
:102C9000401EC1B217487B38FEF7DEFB154988722B
:102CA000897A081101F00FF812490A7B7C3988549F
:102CB0001048007B401CC1B20E4801730146897A5E
:102CC0000807000F00F0FFFF0A490A7B7C3988548F
:102CD0000848007B401CC1B2064801730D21027BED
:102CE0007C3881547C30007B401CC1B201480173A8
:102CF0000A2107E090050020D0030020A002002058
:102D00006C060020027B7C3881547C30007B401CA8
:102D1000C1B2034801730146087B00F0D7FA0EBD2B
:102D2000900500203EB5FA48408B012109038842F6
:102D30004ADAF749488B01F021F8F549C88208467C
:102D4000C18AC07A081836283ADCF148C07A4006B1
:102D5000010EEF480173017B7C38817003217C30C8
:102D6000017300BFEA48C08A4000EA49085AEA49AC
:102D70000880084600880112E548027B7C388154AF
:102D80007C30007B401CC1B2E1480173E24801780D
:102D9000DF48027B7C3881547C30007B401CC1B210
:102DA000DB480173C08A401C81B2D948C182C07A15
:102DB000401EC1B2D648C172C07A0028D2DC6AE196
:102DC0000221D348417366E1D148408B0121490378
:102DD00088425BDBCE48408B091D884256DC00F000
:102DE000ABFF002803DD08206946088003E001F0FE
:102DF0002BF869460880C948808A81B268464180BC
:102E000000218180C1800181C148408B012149039B
:102E1000401A81B2BE48C182C07A4006010EBC4849
:102E20000173017B7C38817003217C30017300BF0A
:102E3000B748C08A40006946085AB7490880084622
:102E400000880112B248027B7C3881547C30007BC0
:102E5000401CC1B2AE480173AF480178AC48027B58
:102E60007C3881547C30007B401CC1B2A84801737F
:102E7000C08A401C81B2A648C182C07A401EC1B23D
:102E8000A348C172C07A0028D2DC04E1A048408B7C
:102E900003210903884231D19D48C07A012829D1F4
:102EA0009B48C07A4006010E99480173017B7C382B
:102EB000817003217C30017300F03EFF9649088049
:102EC0000846008801129248027B7C3881547C308D
:102ED000007B401CC1B28E4801738F4801788C483A
:102EE000027B7C3881547C30007B401CC1B2884816
:102EF0000173D0E0022186484173CCE08448408BC6
:102F00000521090388427DDB8148408B8449884242
:102F100078DC7F48C07A012870D17D48C07A4006AD
:102F2000010E7B480173017B7C38817003217C306A
:102F30000173408B05210903401A030003F05AFF77
:102F40000A060D141B22272C31363B407548002100
:102F5000415688B27049088033E0724801214156D9
:102F600088B26D4908802CE06E480221415688B233
:102F70006949088025E06B480321415688B26649BB
:102F800008801EE0674880886349088019E065482A
:102F9000C0886149088014E0624800895E49088061
:102FA0000FE0604840895C4908800AE05D488089FC
:102FB0005949088005E05B48C0895749088000E00E
:102FC00000BF00BF5448008801125148027B7C3882
:102FD00081547C30007B401CC1B24D4801734E4887
:102FE00001784B48027B7C3881547C30007B401C4C
:102FF000C1B2474801734EE004E0FFE702214448B4
:10300000417348E04248408B29214902884201D15E
:10301000012000E000203E49498B434A914201D102
:10302000012100E000210843002831D03848C07A4F
:10303000012829D13648C07A4006010E3448017370
:10304000017B7C38817003217C3001733748008913
:10305000314908800846008801122D48027B7C38DF
:1030600081547C30007B401CC1B2294801732A483E
:1030700001782748027B7C3881547C30007B401CDF
:10308000C1B22348017306E002212148417302E0E6
:1030900002211F4841731E48007A002836DD1C4873
:1030A000407B002814DD832119487C3841707C3036
:1030B000417B7C3881700321FEF79CF8044614485C
:1030C0007C38C47021120171052000F0FFF81DE06A
:1030D0000F48017B7C38FEF78DF804460C48027BD4
:1030E0007C3884547C30007B401CC1B2084801739A
:1030F0002112027B7C3881547C30007B401CC1B2A1
:10310000034801730146087B00F0E0F83EBD000073
:1031100090050020D0030020A00200206C060020B3
:10312000095000006807002003520000B806002084
:1031300070B504460D4600202649487228B208841E
:10314000204600F0FFFD20210840002803D0012088
:103150002049487270BD1F492020085EE1001E4AC8
:10316000891802228A5E904209DB1A492020085EF3
:10317000E100194A891804228A5E904203DD032087
:1031800014494872E6E713492020085E6100134A9B
:10319000515E88421BD001200E4908726000114622
:1031A0000E5E0C48008C61005052A1000C4A505831
:1031B00080470848407A002802DD600007490E5227
:1031C000064800F047FE05494031C88500BF014868
:1031D000407ABFE7680400200E000020D0030020E2
:1031E000C0010020F7B582B006460F4600203349E3
:1031F00048720025344655E069000498405A00B2F0
:103200002E490884204600F09DFD2021084000281A
:1032100004D001202949487205B0F0BD274920207B
:10322000085EE100264A891802228A5E904209DB84
:1032300022492020085EE100214A891804228A5E82
:10324000904203DD03201D494872E5E71B49202019
:10325000085E61001B4A515E88421FD00120174959
:10326000087260001146085E01901448008C6100ED
:103270005052A100144A505880471048407A002804
:103280000BDD61000F4A01985052104600F0E2FD3C
:103290000C494031C8850320BEE700BF681CC5B299
:1032A000601CC4B2BD42A7DB064800F0D3FD05494F
:1032B0004031C8850148407AAEE70000680400202C
:1032C0000E000020D0030020C001002010B50446ED
:1032D00001210A488170C4700420094988740120C2
:1032E00002F054FE05480079064948600846C06867
:1032F000022108430349C86010BD000010050020EA
:10330000600004400041064010B52748008B0128AA
:1033100049D100F011FD02280DD124481421415E4D
:10332000214A1020105E0A22504381423ADA0020DE
:1033300002F0C2FE36E000F0FFFC03280DD11B486E
:103340001421415E184A1220105E0A225043814225
:1033500028DD002002F0B0FE24E000F0EDFC04289F
:103360000ED11348C08812498988401A04B20F4907
:103370001A20085EA04215DD002002F09DFE11E03B
:1033800000F0DAFC05280DD10948C0880849898871
:10339000401A04B205491C20085EA04202DA00204F
:1033A00002F08AFE00BF10BDD00300206C06002092
:1033B0008C06002010B56B48408B01210903884220
:1033C00018DA6849488B00F0D9FC6649C88208467B
:1033D000C08A352803DD02216248417368E0614AF2
:1033E000918B907DFFF7A4FE002861D003215D48FA
:1033F00041735DE05B48408B01210903884224D181
:103400005848808B022810DA57488088012808D154
:1034100055484088032804D15249888B03F01CF892
:1034200046E003214F48417342E04E48808B082814
:103430003ED14D48008B022803D1002002F03CFE13
:1034400036E003214748417332E04648408B474904
:1034500088421AD144484088032812D14148808BC1
:1034600001B241484030818501462C20085E02F0BF
:10347000E1FF3D4940312C20085E0121FEF744FC6C
:1034800016E003213748417312E03648408B374934
:10349000491C88420CD03348408B491C884207D0D5
:1034A0003048408B491C884202D002212D4841738C
:1034B0002C48007A002853DD2A48407B002836DD5E
:1034C000382128487C38C1702649497B081100F012
:1034D000FAFB24497C3948717C31497B0807000F8D
:1034E00000F0F1FB1F497C39887106211D487B38AB
:1034F000FDF7B2FF1B49C882C98A0905080E00F012
:10350000E2FB18497C39C8717C31897D0807000FBE
:1035100000F0D9FB13497C3908720D2111487C3821
:1035200041720A2181720B20FFF7D0FE18E00D21B5
:103530000C48C2797C3881547C30C079401CC1B2BF
:103540000848C1710A21C2797C3881547C30C07925
:10355000401CC1B20348C1710146C879FFF7B6FEED
:1035600010BD000090050020D003002001100000D5
:1035700010B59648408B01210903884218DA934917
:10358000488B00F0FBFB9149C8820846C08A352869
:1035900003DD02218D484173EFE08C4A918B907DD1
:1035A000FFF7C6FD0028F7D0032188484173E4E007
:1035B0008648408B01210903884224D18348808BAF
:1035C000022810DA82488088012808D18048408883
:1035D000032804D17D49888B02F03EFFCDE0032112
:1035E0007A484173C9E07948808B0828D4D178485B
:1035F000008B022803D1002002F05EFDBDE0032114
:1036000072484173B9E07148408B724988421AD1BF
:103610006F484088032812D16C48808B01B26C48F7
:103620004030818501462C20085E02F003FF684986
:1036300040312C20085E0121FEF766FB9DE003214E
:103640006248417399E06148408B6249491C884255
:10365000A2D05E48408B491C88429DD05B48408B7D
:10366000491C884298D05948408B0521090388425B
:103670004ADB5648408B5849884245DC5348408BCA
:1036800005210903401A030003F0B4FB0A060C12DB
:10369000181E23282D32373C4C48007F40B24F493A
:1036A000087030E04948007F40B24C4948702AE039
:1036B0004648007F40B24949887024E04348007F73
:1036C00040B24649C8701EE04048808B434988801C
:1036D00019E03E48808B4149C88014E03B48808B0C
:1036E0003E4908810FE03948808B3C4948810AE017
:1036F0003648808B3949888105E03448808B3749CA
:10370000C88100E000BF38E03048408B51210902F9
:1037100088422FDB2D48408B091D88422ADC2B482C
:10372000808B002829D002202D4908700020487085
:103730002648408B51210902401A030003F05AFB2E
:103740000504080C1014180026482549C86310E029
:1037500025482349C8630CE024482149C86308E090
:1037600023481F49C86304E0022002F00FFB00E079
:1037700000BF02E00221154841731448007A002876
:1037800020DD1248407900281CD11048407B0028D9
:1037900014DD86210D487C3841707C30417B7C38BB
:1037A00081700321FDF726FD044608487C38C4706B
:1037B000211201710520FFF789FD03E00349C87953
:1037C000FFF784FD00210148417110BD90050020E4
:1037D000D0030020011000000950000068070020FD
:1037E000B80600202B0C00002B0600002B02000066
:1037F0002B62000070B55348408B012109038842B9
:103800003CDA5049488B00F0B9FA4E49C882084664
:10381000C08A4D49884203D102214A4841732CE0B5
:103820004848C07A1A2828DA4648407B002824D124
:103830004448C18AC07A081837281EDA0F250024A8
:103840000CE040497C39481900F052FA62003D49C9
:103850001E318852601CC4B2281DC5B23948C07AD6
:10386000A042EEDC374AD17A907D1E32FFF7BAFCD7
:10387000002802D007213348417302E00221314879
:1038800041733048007A00285BDD2E48407B0028D9
:1038900036DD38212B487C38C1702A49497B081114
:1038A00000F011FA27497C3948717C31497B0807BF
:1038B000000F00F008FA23497C398871062121485D
:1038C0007B38FDF7C9FD1F49C882C98A0905080E62
:1038D00000F0F9F91B497C39C8717C31897D0807F2
:1038E000000F00F0F0F917497C3908720D211548D6
:1038F0007C3841720A2181720B20FFF7E7FC20E03F
:103900000C2110487B38FDF7A7FD0E49C882C98AF3
:103910000905080E00F0D7F90A497C3948737C3153
:10392000897D0807000F00F0CEF906497C398873BD
:103930000D2104487C38C1730A2101741120FFF75E
:10394000C5FC70BD90050020FFFF000070B5464823
:10395000408B01210903884240DA4349488B00F03B
:103960000DFA4149C8820846C08A4049884203D1BD
:1039700002213D48417330E03B48C07A1A2829DAD9
:103980003948C18AC07A0818372823DA0725002663
:1039900010E035487C38405D000233497C396A1CB0
:1039A000895C0843720030491E318852701CC6B2CF
:1039B000A81CC5B22C48C07AB042EADC2A4AD17AA7
:1039C000907D1E32FFF70EFC002806D00721264806
:1039D000417302E002212448417319E02248C07A71
:1039E000012812D120487C38C07901021E48818309
:1039F000808B1D497C39097A08431B498883012142
:103A000019484171FFF7B4FD02E0022116484173E5
:103A10001548007A002826DD1348407B002814DD75
:103A2000902111487C3841707C30417B7C3881701A
:103A30000321FDF7DFFB04460B487C38C4702112DC
:103A400001710520FFF742FC0DE0062106487C3895
:103A5000FDF7D0FB044604487C3884712112C17103
:103A60000820FFF733FC70BD90050020FFFF000029
:103A700010B53448C078C007C00F002812D13248B2
:103A8000007828280ADA30480078401C2E4908704F
:103A900008460078282801D10020087100202A4912
:103AA000487018E028484078282811DA26484078DD
:103AB000401C2549487008464078282808D1012034
:103AC00008712249C9890A22514308B202F0B2FCA6
:103AD00000201D4908701B48C078022108400028BA
:103AE00017D11948807828280FDA17488078401CA9
:103AF0001549887008468078282806D113488088A0
:103B0000022802D1002002F0A7FC00200E49C87054
:103B100016E00D48C07828280FDA0B48C078401C02
:103B20000949C8700846C078282806D10748808807
:103B3000022802D1012002F08FFC00200249887087
:103B400010BD0000000004400A030020D003002044
:103B500072B610210D4AD160F121116255215160D8
:103B6000AA2191600021C943016000BF074909688B
:103B7000C907C90F0029F9D00121044A11600021A9
:103B8000D160F021116262B670470000000002406F
:103B900030B50B46F124104D2C62002115E072B6B1
:103BA000AA240D4D6C605524AC608C00145904603F
:103BB00062B600BF084C2468E407E40F002CF9D07B
:103BC0000124054D2C60491C001D9942E7D3F024C7
:103BD000014D2C6230BD0000000002402B480078EF
:103BE0003C210840294908701020284940310870BC
:103BF0002648007CFC2108402449087423482030D2
:103C00000078FC2108402149203108701F48807845
:103C1000E02108401D498870084680780B21084340
:103C20001A49887003201949403188701748C078B4
:103C3000302108401549C8700846C078072108435C
:103C40001249C870002011494031C87004200F4942
:103C50002031C8700D480079302108400B490871A7
:103C600000200A4940310871084840793021084055
:103C70000649487108464079402108430349487184
:103C80000020024940314871704700002000044084
:103C900043200549087014208870C820C870FF2090
:103CA00008714871704700008000044030B5034639
:103CB000187800F013F80501587800F00FF8054364
:103CC000ECB2204630BD0146092903DD0A463732F1
:103CD000D0B202E00A463032D0B2704701463929EC
:103CE00003DD0A46373AD0B201E00807000F7047FB
:103CF00030B503461878FFF7F1FF05462807040C96
:103D00005878FFF7EBFF0546280204439878FFF741
:103D1000E5FF00010443D878FFF7E0FF04432046A5
:103D200030BD00000146C800024A801880790007B3
:103D3000000F70470E0000200148808A7047000085
:103D4000300300200146C800034A82180620105E96
:103D500010221040704700000E000020014800793A
:103D6000704700000A0300200146C800024A82187A
:103D70000420105E704700000E000020014601295B
:103D800004DB102902DC4A1E90B236E0142904DB61
:103D90001A2902DC0A1F90B22FE01E2904DB242915
:103DA00002DCCA1F90B228E0282905DB292903DCA0
:103DB0000A460A3A90B220E0322905DB332903DCB7
:103DC0000A46123A90B218E03C2905DB402903DC90
:103DD0000A461A3A90B210E0462905DB492903DC6D
:103DE0000A461F3A90B208E0502905DB5B2903DC44
:103DF0000A46263A90B200E000487047FFFF0000F4
:103E00000146C800024A82180220105E7047000076
:103E10000E00002005484079002804DD00200349F9
:103E20004871012070470020FCE7000010030020CB
:103E30000148008970470000100300200148C07845
:103E40007047000010030020014800787047000010
:103E50006C0600200246094800210BE04B00D35AB3
:103E6000434098B2002801D1044801E04304180CF3
:103E70004B1C99B22729F1DB704700003412000077
:103E800001488078704700009802002010B5214951
:103E9000898AC8037D21C900FCF780F91E49088082
:103EA0001C49C98AC8037D21C900FCF777F91A4962
:103EB00048801A48C861002008621649498BC80327
:103EC0007D21C900FCF76AF9154908801149898BE1
:103ED000C8037D21C900FCF761F9114948800F48EA
:103EE000C861002008620B49098CC8037D21C90004
:103EF000FCF754F90B4908800649498CC8037D2119
:103F0000C900FCF74BF9074948800448C861002004
:103F1000086210BD1004002000060020FF7F000092
:103F2000240600204806002010B52D482D4948825F
:103F30002D482221415E8C002A4A1221515E0346FF
:103F400024229A5E62431046FCF71EF900B225490E
:103F500008810A461221515E234B26229A5E624353
:103F60001046FCF711F900B21E4948811E48408CEA
:103F70006421484300B21B49888208464089404278
:103F800000B2488116481949488217483021415EDD
:103F90008C00164A1221515E034634229A5E624317
:103FA0001046FCF7F1F800B2104908810A461221C8
:103FB000515E0D4B32229A5E62431046FCF7E4F8E4
:103FC00000B20A4948810848008E6421484300B283
:103FD0000649888208464089404200B2488110BDA7
:103FE000C05D00008C060020D0030020A206002047
:103FF00010B53748007A374908713548808F4871C5
:104000000846007909282EDA012001F0BFFE324867
:10401000304988633148C86308464079022801D195
:104020002F48086400212B484030418481840020BF
:104030002849C871002127484030017700202549D0
:1040400008702849087048708870C8700120C00343
:104050008880C88008812148CB30488122488881E7
:104060002248C8812BE0022001F090FE2048194927
:10407000C8631948086408464079022803D11D48DE
:1040800048641D488864002112484030C18401857D
:104090000020104988710220087000201149087022
:1040A00048708870C8700120C0038880C88008816B
:1040B0000A48CB3048810C4888810C48C8810748A1
:1040C00000F08CFB002000F089FBFDF70FF810BD1D
:1040D000D0030020B80600202B5C00002B0C000051
:1040E0002B3C000068070020C05D0000BF090000F5
:1040F0002B4C00002B6C00002B7C0000F8B504203A
:104100008D4988700020088248610846407801285F
:1041100040D100240EE0610087481830405A00B2B8
:10412000854908820846406910228A5E80184861E5
:10413000601CC4B280488078A042ECDC7E4A95784E
:10414000EA0F521952107C4B5B69D0187A4A917869
:10415000FCF724F800B2784908811020085EFCF7CB
:10416000B9FE009075480168009803F04DF80646C6
:1041700071491020085EFCF7ADFE0746314603F09A
:104180009BF80546FCF744FE00B26B49088200200C
:104190004870D0E068484078022841D104240EE0FD
:1041A000610065481830405A00B2634908820846E9
:1041B000406910228A5E80184861601CC4B25E4863
:1041C0008078001DA042EBDC5B4A9578EA0F52191B
:1041D0005210594B5B69D018574A9178FBF7DEFFB4
:1041E00000B2554948811020085EFCF773FE07466F
:1041F00052480168384603F007F806464E49102039
:10420000085EFCF767FE3146009003F055F805465E
:10421000FCF7FEFD00B248490882002048708AE0A1
:1042200045484078032841D108240EE06100424807
:104230001830405A00B240490882084640691022AE
:104240008A5E80184861601CC4B23B4880780830A0
:10425000A042EBDC384A9578EA0F52195210364BDF
:104260005B69D018344A9178FBF798FF00B2324965
:1042700088811020085EFCF72DFE07462F48016854
:10428000384602F0C1FF06462B491020085EFCF7B5
:1042900021FE3146009003F00FF80546FCF7B8FD0B
:1042A00000B2254908820020487044E02248407846
:1042B000042840D10C240EE061001F481830405AF9
:1042C00000B21D4908820846406910228A5E8018A3
:1042D0004861601CC4B2184880780C30A042EBDC06
:1042E000154A9578EA0F52195210134B5B69D01892
:1042F000114A9178FBF752FF00B20F49C881102094
:10430000085EFCF7E7FD07460C480168384602F0F6
:104310007BFF064608491020085EFCF7DBFD3146AE
:10432000009002F0C9FF0546FCF772FD00B2024999
:10433000088200204870F8BDB80600205C07002005
:1043400010B5F448407940210840002877D1F24860
:104350000078030002F04EFD130B212D74808E9C1B
:10436000BCDEF7F5F4F3F2F1F0EFEEEDEC00EA4825
:104370000079092803DD0220E7490870C5E1E64914
:10438000098F88B200F02AFA002000F027FAE248EC
:104390000078401CE0490870B7E1002000F01EFAE8
:1043A000002000F01BFADC480078401CDA49087055
:1043B000ABE1D9480079092805DDD749898F88B252
:1043C00000F00CFA32E0D4484079022822D1D248D9
:1043D0004030007F002812D100F000FACE49403171
:1043E000C883002000F0FAF9CC48CB49886301214A
:1043F000C948403001770020C749087085E1002096
:1044000000F0ECF9C449403108840221C248403030
:1044100001770BE0C049898F88B200F0DFF9BE490F
:104420004031C8830121BC4840300177002000F0B2
:10443000D5F9B9480078401CB749087065E167E1D3
:10444000002000F0CBF9002000F0C8F9B248007855
:10445000401CB149087058E1002000F0BFF9AE4996
:104460000883002000F0BAF9AB480078401CAA4944
:1044700008704AE1002000F0B1F9A7494883002004
:1044800000F0ACF9A4480078401CA34908703CE156
:10449000A148007909280BDA9F484079012807D103
:1044A0009D49898F88B200F099F99B49888306E07D
:1044B0009949096C88B200F091F9974988830020E6
:1044C00000F08CF994480078401C934908701CE176
:1044D000002000F083F99049C883002000F07EF9A5
:1044E0008D480079092807DA8B484079012803D1E3
:1044F00004208949087004E087480078401C8649F8
:10450000087001208449487008464079012800D18C
:10451000C871FAE0002000F061F97F4908840020AA
:1045200000F05CF97C480078401C7B490870ECE0A6
:10453000D8E0C7E0B8E0A9E098E087E078E069E07B
:1045400037E00EE0FFE7002000F048F972494884A8
:10455000002000F043F970480078401C6E49087054
:10456000D3E06D480079092803DA6B4840790228C6
:1045700007D06948007909280BDD67484079012890
:1045800007D16549898F88B200F028F9624988848B
:1045900006E06149496C88B200F020F95E498884E0
:1045A000002000F01BF95C480078401C5A49087054
:1045B000ABE0002000F012F95749C884002000F059
:1045C0000DF955480079092803DA53484079022843
:1045D00007D051480079092807DD4F484079012864
:1045E00003D104204C49087004E04B480078401C7B
:1045F0004949087002204849487008464079012816
:1046000000D1887144484079022802D101204249F2
:10461000C8717AE0002000F0E1F83F4908850020E9
:1046200000F0DCF83C480078401C3B4908706CE026
:10463000002000F0D3F838494885002000F0CEF87B
:1046400035480078401C344908705EE03249896C76
:1046500088B200F0C3F830498885002000F0BEF829
:104660002D480078401C2C4908704EE0002000F0D6
:10467000B5F82949C885002000F0B0F82648007830
:10468000401C25490870032048703EE0002000F0DF
:10469000A5F821490886002000F0A0F81E480078FF
:1046A000401C1D49087030E0002000F097F81A49BE
:1046B0004886002000F092F817480078401C164900
:1046C000087022E01449898F88B200F087F81249F7
:1046D0008886002000F082F80F480078401C0E49C0
:1046E000087012E0002000F079F80B49C88600201D
:1046F00000F074F8042008490870487008464079B2
:10470000022801D10120887100BF00BFFFF7F6FC2D
:1047100010BD000000000440B80600202B7C000003
:1047200010B52648007A264908712448808F4871C0
:104730000846007909281DDA012001F027FB2148ED
:104740001F4988632048C86308464079022801D180
:104750001E48086400211A484030418481840020AA
:104760001749C871002116484030017700201449CC
:10477000087019E0022001F009FB15481049C863D0
:104780001048086408464079022803D1114848645B
:104790001148886400210A484030C1840185002006
:1047A00007498871022008700549098F88B200F016
:1047B00015F8002000F012F810BD0000D003002012
:1047C000B80600202B5C00002B0C00002B3C0000E6
:1047D0002B4C00002B6C00002B7C000030B50446F5
:1047E0000025002328E000F02DF8802014494875AA
:1047F00000F028F80120C00318412040002803D011
:1048000008200F49487503E008200D492031487100
:104810000B486038407940210840002802D0480207
:104820001841054300F00EF88020054920314871F9
:1048300000F008F8581C83B2102BD4DB284630BD9A
:1048400060000440032000BF0146421ED0B2002990
:10485000FAD1704710B5832005494870012088704F
:10486000002001F089F80321002001F08FF810BD2D
:104870004004024010B501F077FA10BD10B5FFF703
:10488000C9FA002800D110BD0F48C078002800D018
:10489000F9E70D480078012806D0022807D0032840
:1048A00008D004280CD108E000F0BAFC09E000F0C0
:1048B00031FC06E000F0DEFA03E000F053FF00E018
:1048C00000BF00BF00BFDEE76804002070B5B84835
:1048D000C07800280DDDB648C078401EB449C870C5
:1048E0000846C078002804D1032008704878FDF7F6
:1048F000AFF8AF48007801281AD1AE48808A002866
:10490000FAD1AB488079002825DDA948808A14288F
:104910000FDAA748808A401CA54988820846808A09
:10492000142801D10020C882A149C889FDF7E2F806
:104930003DE19F48C08A0528FADA9D48C08A401C9C
:104940009B49C8820846C08A052801D10020888278
:10495000FDF740F92BE19648C07900282DDD9448F9
:10496000008B142814DA9248008B401C904908836D
:104970000846008B142801D1002048838E492C2042
:10498000085E0121FDF7C0F9012001F0ADFC0EE148
:104990008748408B0528CBDA8548408B401C8449EA
:1049A00048830846408B052801D100200883FDF785
:1049B0001FF9002001F098FCF9E07F4840880228A8
:1049C0007DD17E4A1421515ECA0088180521FBF76B
:1049D000E5FB0446FF3441347748403840880228DC
:1049E0002ED1754840388088012829D1FFF72CFA4C
:1049F000002825D16E48808B14280FDA6C48808BF4
:104A0000401C6B4988830846808B142801D1002004
:104A1000C88301212046FDF73BF915E06448C08BAF
:104A2000052811DA6248C08B401C6149C8830846DA
:104A3000C08B052801D100208883FDF7CBF803E067
:104A400001212046FDF724F9FFF788F900282FDD22
:104A5000594940390E20085E122148430446FF346C
:104A600041345348008B14280FDA5148008B401C06
:104A70004F4908830846008B142801D10020488341
:104A800001212046FDF740F918E04948408B0528F0
:104A900014DA4748408B401C454948830846408B00
:104AA000052801D100200883FDF7A2F806E006E002
:104AB00041492C20085E0121FDF726F977E03E48A8
:104AC00040384088022830D13B484038808801284F
:104AD0002BD1FFF7B9F9002827D13548808B14284E
:104AE00011DA3348808B401C314988830846808B1B
:104AF000142801D10020C88330491420085E012108
:104B0000FDF7C6F817E02A48C08B052813DA2848B5
:104B1000C08B401C2649C8830846C08B052801D19C
:104B200000208883FDF756F805E024491420085E2C
:104B30000121FDF7ADF8FFF711F900282BDD1C4826
:104B4000008B142815DA1A48008B401C184908837A
:104B50000846008B142801D100204883164A403AA9
:104B60000E21515E0A22514308460121FDF7CCF87F
:104B70001DE00F48408B052819DA0D48408B401C7A
:104B80000B4948830846408B052801D10020088343
:104B9000FDF72EF80BE00A48416A0A4802F034FBA0
:104BA0000546FCF735F904460121FDF7ADF870BD67
:104BB0006804002030030020100400206C06002050
:104BC0003007002000002041012005490870002026
:104BD00048700871C870087288717B20C88170475E
:104BE0006804002010B59CB056488078030002F09D
:104BF00001F90D08182C48626A70767E848A9098B4
:104C0000A4005048408A002805DD4E48408A401ED6
:104C10004C49488204E0FFF7D7FF012049498870DA
:104C20008CE0494801F042F84748FFF713F9044681
:104C300045484030C08DA04203D1022041498870D0
:104C400002E003203F49887078E0684601F03EF8B2
:104C500000240AE0A0003C490858A1006A465158C7
:104C6000884200D003E0601C84B2092CF2DB00BF54
:104C7000092C02DA344801F069F8042031498870BF
:104C80005CE0314801F022F82F48FFF7E3F80446D2
:104C90002D484030C08DA04206D12B4801F048F885
:104CA00004202849887005E0012001F005FA0B2056
:104CB0002449887042E000F04FFE22488078401C72
:104CC000204988703AE01F488078401C1D49887050
:104CD00034E01C488078401C1A4988702EE001F0AE
:104CE0009BF818488078401C1649887026E01548C3
:104CF0008078401C1349887020E012488078401C5E
:104D0000104988701AE00F488078401C0D4988705F
:104D100014E0FFF79FFD0B488078401C094988701C
:104D20000CE0FFF765F90120064908700846807815
:104D3000401C88700020088200E000BF00BF1CB04B
:104D400010BD000030030020D00300201548007A79
:104D5000042805DA1348007A401C1249087220E042
:104D6000002010490872012048710846407A09283D
:104D700004DA0846407A401C487212E000200949D3
:104D80004872012088710846807A092804DA0846AA
:104D9000807A401C887204E0002002498872012059
:104DA000C8717047240300200548408A202805DA8E
:104DB0000348408A401C81B201484182704700008C
:104DC0009005002010B52848007900280ADD264803
:104DD0000079401E2449087108460079002801D155
:104DE000012008702048008A002825DD1E48008A1E
:104DF000401E1D4908820846008A00281CD188717F
:104E00007B20C8811948408802280FD1184A1421F4
:104E1000515ECA0088180521FBF7C0F90446FF342B
:104E2000413401212046FCF733FF05E010491420EE
:104E3000085E0121FCF72CFF0B48408A002812DD98
:104E40000948408A401E084948820846408A00288E
:104E500009D1C87105492C20085E0121FCF754FFD7
:104E6000012001F041FA10BD680400201004002068
:104E70006C06002010B50A20A2490871FEF7DEFF7B
:104E8000012806D002287CD003287BD004287AD1C0
:104E90000AE0FEF7CDFF032800D031E10020994958
:104EA0000871012008702BE1FEF7C2FF032800D033
:104EB00026E1042093490870084640784000924952
:104EC000085A904908844878FEF72CFF8D494871AC
:104ED0004878FEF749FF8B4988844878FEF790FFB1
:104EE0008849488408464078072806D18648808942
:104EF0004884854840898884ABE08248407805280A
:104F00000CD180492220085E7F490C228A5E9042A3
:104F1000F2DA084680897B4948849AE079484078EB
:104F200006280CD177492420085E77490A228A5E38
:104F3000904203DD084640897249888489E07148BF
:104F4000407808280CD16F492220085E6E49122251
:104F50008A5E90427DDA0846408A6A49488478E051
:104F60006848407809280FD166492420085E6649C0
:104F700010228A5E90426CDD0846008A614988846E
:104F800067E07AE09AE0BAE05E4840780A280CD1FF
:104F90005C492220085E5C4916228A5E904258DAFB
:104FA0000846C08A5749488453E0564840780B2841
:104FB0000CD154492420085E534914228A5E904241
:104FC00047DD0846808A4F49888442E04D48407852
:104FD00014280CD14B492220085E4B492A228A5EB4
:104FE000904236DA0846408D4649488431E04548CB
:104FF000407815280CD143492420085E42492822D4
:105000008A5E904225DD0846008D3E49888420E076
:105010003C4840781B280CD13A492220085E3A4986
:1050200038228A5E904214DA0846008F3549488457
:105030000FE0344840781C280BD132492420085E08
:10504000314936228A5E904203DD0846C08E2D49E2
:1050500088842C4840780D2808D12A4920228A5E6D
:1050600051002A4A505EFCF77DFD05E0254A517942
:105070002020105EFCF748FE42E0224840897B2851
:1050800009D120484078292813DA1E484078401C6E
:105090001C4948700DE01B4840891D49884208D1D1
:1050A00018484078352804DA16484078401C1549DD
:1050B000487014494878FCF7CBFC21E0114840893E
:1050C0007B2809D10F484078002813DD0D4840782F
:1050D000401E0C4948700DE00A4840890C4988423E
:1050E00008D1084840782A2804DD06484078401E48
:1050F0000449487003494878FCF7AAFC00E000BF67
:1051000000BF10BD68040020D00300208873000099
:105110001503000010B50A203F490871FEF78EFE06
:10512000012806D0022829D0032851D0042870D1A4
:1051300009E0FEF77DFE032804D1002036490871FE
:105140000120087066E0344840897B2808D103209C
:1051500031490870002048704878FCF779FC0CE071
:105160002D4840892D49884207D103202A490870DB
:105170002A2048704878FCF76BFC4BE0FEF758FE9D
:10518000232810DD244840892449C831884205DAA3
:10519000214840890A302049488114E01F48D23014
:1051A0001D4948810FE01C4840891C49D231884282
:1051B00005DA19484089401C1749488103E017481F
:1051C000D2301549488114494889FCF71FFD21E078
:1051D000FEF72EFE23280DDD0F4840890A2805DD45
:1051E0000D4840890A380C4948810CE000200A49E2
:1051F000488108E008484089002804DD06484089C5
:10520000401E0549488104494889FCF7FFFC01E03C
:10521000FFE700BF00BF10BD6804002015030000B9
:1052200070B5FEF70BFE012806D0022813D0032824
:105230007CD004287BD15EE2FEF7FAFDAF2809DDC1
:105240000220FA4908706420488114200871642003
:10525000FCF7DCFC7EE2FEF781FD002800DD79E250
:10526000F348C088022850D10120F049C8713C2081
:105270004882EF4840302C24045FFEF7D9FDAF2868
:1052800002DDFF34F5340BE0FEF7D2FD232801DD0B
:10529000323405E0E748844201DA641D00E00A3454
:1052A000E34840304088022818D1E1490A20085ECE
:1052B000122148430546FF354135AC4200DD2C46FE
:1052C00021B2DB48403081852146FF3941398A00CF
:1052D00088180921FAF762FF04460BE0D4490A2531
:1052E0004D5F0A214D43AC4200DD2C4621B2D0482F
:1052F0004030818520B201F09DF8CD4940312C200D
:10530000085E0121FCF700FD97E0C848807900287D
:105310002FDD3C20C5490882FEF78AFDAF2807DD56
:10532000C248C0896430C149C88110E086E010E2FB
:10533000FEF77EFD232805DDBC48C0890A30BB4945
:10534000C88104E0B948C089401CB849C881B74841
:10535000C089B849491E884202DD0846B349C88160
:10536000B248808A142868DAB049C889FCF7C2FBC1
:1053700063E0AE48C089002855D10120AB49C8710F
:105380003C2048820882AA4840302C24045FFEF763
:105390004FFDAF2802DDFF34F5340BE0FEF748FD8A
:1053A000232801DD323405E0A248844201DA641D7D
:1053B00000E00A349E4840304088022818D19C49B9
:1053C0000A20085E122148430546FF354135AC42AC
:1053D00000DD2C4621B29648403081852146FF39B8
:1053E00041398A0088180921FAF7D8FE04460BE0F3
:1053F0008F490A254D5F0A214D43AC4200DD2C4602
:1054000021B28B484030818520B201F013F88748E3
:10541000008B142806DA864940312C20085E0121D1
:10542000FCF772FC09E00120804988717B20C8816B
:105430003C200882C889FCF75DFB8BE1FEF78EFCFF
:10544000002800DD86E17A48C08802287DD101204D
:105450007649C8713C204882FEF7EAFCAF2810DD8F
:10546000734840302C21415E7348814235DD7048DD
:105470004030808DFF38F53801B26D48403081856D
:105480002BE0FEF7D5FC23280FDD694840302C21A6
:10549000415E6A48814220DD65484030808D323867
:1054A00001B263484030818517E0614840302C21CB
:1054B000415E6348814208DD5D484030808D401F79
:1054C00001B25B484030818507E059484030808D0B
:1054D0000A3801B2564840308185554840302C2466
:1054E000045F4088022818D151490C20085E12211F
:1054F00048430546FF354135AC4200DA2C4621B21F
:105500004B48403081852146FF3941398A0088184F
:105510000921FAF743FE04460BE045490C254D5F8F
:105520000A214D43AC4200DA2C4621B240484030BB
:10553000818520B200F07EFF3D4940312C20085E7D
:105540000121FCF7E1FBD5E0FFE73848807900282E
:1055500038DD3C2035490882FEF76AFCAF280DDDB6
:105560003248C089642805DD3048C08964382F4935
:10557000C8811EE000202D49C8811AE0FEF758FCC2
:1055800023280DDD2948C0890A2805DD2748C08960
:105590000A382649C8810CE000202449C88108E067
:1055A0002248C089002804DD2048C089401E1F49C8
:1055B000C8811E48808A142803DA1C49C889FCF770
:1055C00099FA97E01948C08900287DD10120174930
:1055D000C8713C20488200200882FEF729FCAF28D1
:1055E00010DD134840302C21415E134881423CDDE0
:1055F0000F484030808DFF38F53801B20C484030FC
:10560000818532E0FEF714FC23281BDD084840307A
:105610002C21415E0948814227DD05484030808DBC
:10562000323801B20248403081851EE06804002013
:10563000D00300201027000024FAFFFF62F8FFFFCC
:1056400018FCFFFF44482C21415E4448814206DD9E
:105650004148808D401F01B23F48818505E03E48AA
:10566000808D0A3801B23C4881853B482C24045F78
:105670004088022818D1384940390C20085E122190
:1056800048430546FF354135AC4200DA2C4621B28D
:10569000314881852146FF3941398A00881809211E
:1056A000FAF77CFD04460BE02B4940390C254D5F91
:1056B0000A214D43AC4200DA2C4621B226488185AE
:1056C00020B200F0B7FE00E00AE02548008B142865
:1056D00005DA21492C20085E0121FCF715FB09E0C1
:1056E00001201F4988717B20C8813C200882C8891D
:1056F000FCF700FA2EE01A488079002813DD1848DC
:10570000C08900280FD1164988710120C8713C203A
:105710004882C889FCF7EEF90F492C20085E012168
:10572000FCF7F2FA14E00C484038808801280FD1C9
:1057300009484038408802280AD1FEF785FB002836
:1057400003DD002000F088FE02E0012000F084FE6E
:1057500000E000BF00BF70BD1004002018FCFFFF78
:105760006804002010B50A2078490871FEF766FB2E
:10577000012806D0022840D0032878D0042877D109
:1057800006E00320714908704878FCF761F9DBE016
:10579000FEF74EFB032800D0D6E00A206B49C87004
:1057A00000204872487800F09DFE6848407A002842
:1057B00003D00020FCF728F902E00120FCF724F9CF
:1057C000624840897B2809D160484078292813DA4B
:1057D0005E484078401C5D4948700DE05B48408958
:1057E0005B49884208D159484078352804DA57483F
:1057F0004078401C55494870A6E054494878FEF767
:10580000A1FA002800D09FE0FEF712FBAF2806DDCA
:105810004E48008C643000B24C49088410E0FEF71A
:1058200007FB232806DD4948008C0A3000B24749AF
:10583000088405E04548008C401C00B243490884B8
:1058400042492020085E24228A5E904202DD0846FA
:10585000808C08843D4840780D280AD13B4920229D
:105860008A5E51003B4A505EFCF77CF907E007E096
:1058700069E0364A51792020105EFCF745FA63E072
:1058800032494878FEF75EFA002800D05CE0FEF767
:10589000CFFAAF2814DD2D482021415E0246222098
:1058A000105E6430814206DD1046008C643800B220
:1058B0001146088429E02548408C2449088424E0C6
:1058C000FEF7B6FA232814DD20482021415E024667
:1058D0002220105E0A30814206DD1046008C0A3814
:1058E00000B21146088410E01848408C174908841B
:1058F0000BE016492020085E22228A5E904204DDD9
:105900000846008C401E00B2088410492020085E22
:1059100022228A5E904202DA0846408C08840B48B4
:1059200040780D2808D1094920228A5E5100094A91
:10593000505EFCF717F905E0044A51792020105E0B
:10594000FCF7E2F900E000BF00BF10BD68040020D2
:10595000150300008873000010B50E2000F00CF84D
:1059600002210E2000F012F80C2000F005F80421AE
:105970000C2000F00BF810BDC206D20E01219140A0
:10598000014A11607047000000E100E010B50028F6
:1059900019DA1A4A03071B0F083B9B089B00D258D1
:1059A0008307DC0EFF23A3409A438B071B0E84075B
:1059B000E40EA3401A43114B0407240F083CA4082B
:1059C000A4001A5118E00E4A03231B02D2188308C0
:1059D0009B00D2588307DC0EFF23A3409A438B071A
:1059E0001B0E8407E40EA3401A43054B0324240234
:1059F0001B198408A4001A5110BD00001CED00E022
:105A000000E100E000B5014618480079030001F00C
:105A1000F1F90C2B070B0F13171B1F2B2B23272B15
:105A20004800134A105A00BD4800124A105AFAE7BB
:105A30004800114A105AF6E74800104A105AF2E797
:105A400048000F4A105AEEE748000E4A105AEAE79B
:105A500048000D4A105AE6E748000C4A105AE2E79F
:105A600048000B4A105ADEE70020DCE7B8060020A9
:105A70007A7E0000DA860000949100005C960000B7
:105A8000A4A2000094B20000CCC0000032D40000F8
:105A900030D8000000B501461A480079030001F033
:105AA000A9F90C2F070B0F13171B1F232F272B2FC1
:105AB0004800154A105A00BD4800144A105AFAE727
:105AC0004800134A105AF6E74800124A105AF2E703
:105AD0004800114A105AEEE74800104A105AEAE707
